:06000000000000000828CA
:10001000031383128601850187010313831685016B
:100020008701861706178616061686110611861092
:100030000610F030950081130317831289140317FB
:100040008316880189010313831226283020230890
:10005000031926288B20A10084200130850626283C
:1000600003138316F03086000313831200308600DA
:10007000061E4428861E5428061F6428861F7428DE
:1000800041280510A301080083160F308600831253
:10009000003086004B28061CDF28861CE928061D38
:1000A0009E28861DE428542883160F30860083126C
:1000B000003086005B28061CDA28861CCB28061D2B
:1000C000C628861DC128642883160F308600831237
:1000D000003086006B28061CD528861CBC28061D0F
:1000E000B728861DB228742883160F308600831225
:1000F000003086007B28061CD028861CAD28061DF3
:10010000A828861DA32830280430A200A20B862828
:10011000A10B84280800230882070034EE34D4346D
:10012000BD34B2349F348E347E3477346A345E34D6
:1001300059344F3447343F343B3435343030870002
:100140000F30A3000800313087000230A300080000
:10015000323087000330A3000800333087000430BA
:10016000A3000800343087000630A30008003530B3
:1001700087000730A3000800363087000830A3004E
:100180000800373087000A30A300080038308700A5
:100190000B30A3000800393087000C30A3000800A2
:1001A000413087000530A300080042308700093045
:1001B000A3000800433087000D30A300080044303E
:1001C00087001130A30008002A3087000E30A300FA
:0C01D0000800233087001030A300080056
:04400E00F120FF3F5F
:00000001FF
