:06000000000000000828CA
:10001000031383128601850187010313831685016B
:100020008701861706178616061686110611861092
:100030000610031783128914031783168801890198
:100040000313831223282D20230803192328B32008
:10005000A100AC2001308506232803138316F0305D
:1000600086000313831200308600061E4128861E78
:100070005B28061F7628861F91280510A30108001B
:10008000080083160F308600831200308600061C9D
:100090004C281130A300ED28861C51281030A300F5
:1000A000F328061D56288F002330C628861D080019
:1000B0008E002330F02883160F3086008312003024
:1000C00086006228061C67288D002330EA28861CDB
:1000D0006C288C002330E128061D71288B0023300A
:1000E000DE28861D08008A002330DB2883160F30A7
:1000F00086008312003086007D28061C8228890035
:100100002330E728861C872888002330D828061D3E
:100110008C2887002330D528861D080086002330D0
:10012000D22883160F30860083120030860098286C
:10013000061C9D2885002330E428861CA228840004
:100140002330CF28061DA72883002330CC28861D06
:10015000080082002330C9280430A200A20BAE2878
:10016000A10BAC280800230882070034EE34D434F5
:10017000BD34B2349F348E347E3477346A345E3486
:1001800059344F3447343F343B34353430308700B2
:100190000800313087000800323087000800333013
:1001A00087000800343087000800353087000800D9
:1001B0003630870008003730870008003830870065
:1001C00008003930870008004130870008004230BD
:1001D000870008004330870008004430870008008B
:0C01E0002A308700080023308700080048
:04400E00F120FF3F5F
:00000001FF
