:06000000000000000828CA
:10001000031383128601850187010313831685016B
:100020008701861706178616061686110611861092
:10003000061081130317831289140317831688018E
:1000400089010313831224282E202308031924284E
:100050008920A100822001308506242803138316FD
:10006000F03086000313831200308600061E4228FB
:10007000861E5228061F6228861F72283F280510F8
:10008000A301080083160F3086008312003086001B
:100090004928061CDE28861CE828061D9D28861D8A
:1000A000E328522883160F30860083120030860022
:1000B0005928061CD928861CCA28061DC528861D55
:1000C000C028622883160F30860083120030860015
:1000D0006928061CD428861CBB28061DB628861D48
:1000E000B128722883160F308600831200308600F4
:1000F0007928061CCF28861CAC28061DA728861D3B
:10010000A2282E280430A200A20B8428A10B82284A
:1001100008002308820700340034EE34D434BD34A0
:10012000B2349F348E347E3477346A345E3459343A
:100130004F3447343F343B343534303087000F3050
:10014000A3000800313087000230A30008003230DD
:1001500087000330A3000800333087000430A30079
:100160000800343087000630A300080035308700CF
:100170000730A3000800363087000830A3000800CD
:10018000373087000A30A3000800383087000B3072
:10019000A3000800393087000C30A300080041306C
:1001A00087000530A3000800423087000930A30013
:1001B0000800433087000D30A3000800443087005A
:1001C0001130A30008002A3087000E30A300080079
:0A01D000233087001030A300080060
:04400E00F120FF3F5F
:00000001FF
