:06000000000000000828CA
:1000100003138312860185010313831600308500C4
:10002000FF30860003178312891403178316880193
:100030008901031383121C282620230803191C2876
:100040005820A1005120013085061C28861B2B2832
:100050000830A3000800061B30280730A300080062
:10006000861A35280630A3000800061A3A280530FB
:10007000A300080086193F280430A30008000619D1
:1000800044280330A3000800861849280230A30042
:10009000080006184E280130A30008000510A3012F
:1000A00008000430A200A20B5328A10B512808001D
:1000B000230882070034EE34D434BD34B2349F3484
:0600C0008E347E3477341B
:04400E00F120FF3F5F
:00000001FF
