:06000000000000000828CA
:1000100003138312860185010313831600308500C4
:10002000FF30860003178312891403178316880193
:100030008901031383121C2823205520A1004E2080
:10004000013085061C28061C28280030A300080063
:10005000861C2D280130A3000800061D322802301E
:10006000A3000800861D37280330A3000800061EE1
:100070003C280430A3000800861E41280530A30058
:100080000800061F46280630A3000800861F4B28DC
:100090000730A30008000510A30108000430A200E7
:1000A000A20B5028A10B4E28080023088207003419
:1000B000EE34D434BD34B2349F348E347E3477344D
:04400E00F120FF3F5F
:00000001FF
